{
    "_format": "hh-sol-artifact-1",
    "contractName": "Web3RSVP",
    "sourceName": "contracts/Web3RSVP.sol",
    "abi": [
        {
            "anonymous": false,
            "inputs": [
                {
                    "indexed": false,
                    "internalType": "bytes32",
                    "name": "eventId",
                    "type": "bytes32"
                },
                {
                    "indexed": false,
                    "internalType": "address",
                    "name": "attendeeAddress",
                    "type": "address"
                }
            ],
            "name": "ConfirmedAttendee",
            "type": "event"
        },
        {
            "anonymous": false,
            "inputs": [
                {
                    "indexed": false,
                    "internalType": "bytes32",
                    "name": "eventId",
                    "type": "bytes32"
                }
            ],
            "name": "DepositsPaidOut",
            "type": "event"
        },
        {
            "anonymous": false,
            "inputs": [
                {
                    "indexed": false,
                    "internalType": "bytes32",
                    "name": "eventId",
                    "type": "bytes32"
                },
                {
                    "indexed": false,
                    "internalType": "address",
                    "name": "creatorAddress",
                    "type": "address"
                },
                {
                    "indexed": false,
                    "internalType": "uint256",
                    "name": "eventTimestamp",
                    "type": "uint256"
                },
                {
                    "indexed": false,
                    "internalType": "uint256",
                    "name": "maxCapacity",
                    "type": "uint256"
                },
                {
                    "indexed": false,
                    "internalType": "uint256",
                    "name": "deposit",
                    "type": "uint256"
                },
                {
                    "indexed": false,
                    "internalType": "string",
                    "name": "eventDataCID",
                    "type": "string"
                }
            ],
            "name": "NewEventCreated",
            "type": "event"
        },
        {
            "anonymous": false,
            "inputs": [
                {
                    "indexed": false,
                    "internalType": "bytes32",
                    "name": "eventId",
                    "type": "bytes32"
                },
                {
                    "indexed": false,
                    "internalType": "address",
                    "name": "attendeeAddress",
                    "type": "address"
                },
                {
                    "indexed": false,
                    "internalType": "uint8",
                    "name": "claimedRsvpLength",
                    "type": "uint8"
                }
            ],
            "name": "NewRSVP",
            "type": "event"
        },
        {
            "inputs": [
                {
                    "internalType": "bytes32",
                    "name": "eventId",
                    "type": "bytes32"
                }
            ],
            "name": "confirmAllAttendees",
            "outputs": [],
            "stateMutability": "nonpayable",
            "type": "function"
        },
        {
            "inputs": [
                {
                    "internalType": "bytes32",
                    "name": "eventId",
                    "type": "bytes32"
                },
                {
                    "internalType": "address",
                    "name": "attendee",
                    "type": "address"
                }
            ],
            "name": "confirmAttendee",
            "outputs": [],
            "stateMutability": "nonpayable",
            "type": "function"
        },
        {
            "inputs": [
                {
                    "internalType": "uint256",
                    "name": "eventTimestamp",
                    "type": "uint256"
                },
                {
                    "internalType": "uint256",
                    "name": "deposit",
                    "type": "uint256"
                },
                {
                    "internalType": "uint256",
                    "name": "maxCapacity",
                    "type": "uint256"
                },
                {
                    "internalType": "string",
                    "name": "eventDataCID",
                    "type": "string"
                }
            ],
            "name": "createNewEvent",
            "outputs": [],
            "stateMutability": "nonpayable",
            "type": "function"
        },
        {
            "inputs": [
                {
                    "internalType": "bytes32",
                    "name": "eventId",
                    "type": "bytes32"
                }
            ],
            "name": "createNewRSVP",
            "outputs": [],
            "stateMutability": "payable",
            "type": "function"
        },
        {
            "inputs": [
                {
                    "internalType": "bytes32",
                    "name": "",
                    "type": "bytes32"
                }
            ],
            "name": "idToEvent",
            "outputs": [
                {
                    "internalType": "bytes32",
                    "name": "eventId",
                    "type": "bytes32"
                },
                {
                    "internalType": "string",
                    "name": "evetnDataCID",
                    "type": "string"
                },
                {
                    "internalType": "address",
                    "name": "eventOwner",
                    "type": "address"
                },
                {
                    "internalType": "uint256",
                    "name": "eventTimestamp",
                    "type": "uint256"
                },
                {
                    "internalType": "uint256",
                    "name": "deposit",
                    "type": "uint256"
                },
                {
                    "internalType": "uint256",
                    "name": "maxCapacity",
                    "type": "uint256"
                },
                {
                    "internalType": "bool",
                    "name": "paidOut",
                    "type": "bool"
                }
            ],
            "stateMutability": "view",
            "type": "function"
        },
        {
            "inputs": [
                {
                    "internalType": "bytes32",
                    "name": "eventId",
                    "type": "bytes32"
                }
            ],
            "name": "withdrawUnclaimedDeposits",
            "outputs": [],
            "stateMutability": "nonpayable",
            "type": "function"
        }
    ],
    "bytecode": "0x608060405234801561001057600080fd5b506124ee806100206000396000f3fe6080604052600436106100545760003560e01c806292098c1461005957806317f0165a146100825780636dcdf2cd1461009e57806379747571146100c7578063909ef021146100f0578063acdbe01214610133575b600080fd5b34801561006557600080fd5b50610080600480360381019061007b9190611541565b61015c565b005b61009c600480360381019061009791906115ff565b6103c9565b005b3480156100aa57600080fd5b506100c560048036038101906100c0919061168a565b61063e565b005b3480156100d357600080fd5b506100ee60048036038101906100e991906115ff565b610b15565b005b3480156100fc57600080fd5b50610117600480360381019061011291906115ff565b610fcd565b60405161012a97969594939291906117a2565b60405180910390f35b34801561013f57600080fd5b5061015a600480360381019061015591906115ff565b6110c4565b005b60003330878787604051602001610177959493929190611881565b604051602081830303815290604052805190602001209050600080600083815260200190815260200160002060030154146101e7576040517f08c379a00000000000000000000000000000000000000000000000000000000081526004016101de9061192c565b60405180910390fd5b60608060405180610120016040528084815260200186868080601f016020809104026020016040519081016040528093929190818152602001838380828437600081840152601f19601f8201169050808301925050505050505081526020013373ffffffffffffffffffffffffffffffffffffffff168152602001898152602001888152602001878152602001838152602001828152602001600015158152506000808581526020019081526020016000206000820151816000015560208201518160010190816102b89190611b87565b5060408201518160020160006101000a81548173ffffffffffffffffffffffffffffffffffffffff021916908373ffffffffffffffffffffffffffffffffffffffff160217905550606082015181600301556080820151816004015560a0820151816005015560c082015181600601908051906020019061033a9291906113f5565b5060e08201518160070190805190602001906103579291906113f5565b506101008201518160080160006101000a81548160ff0219169083151502179055509050507f2553138c3f9c9008f266dbdbe9fc64f5b71e098d06ef714a190a65a8b9fc6bf383338a898b8a8a6040516103b79796959493929190611c95565b60405180910390a15050505050505050565b6000806000838152602001908152602001600020905080600401543414610425576040517f08c379a000000000000000000000000000000000000000000000000000000000815260040161041c90611d4b565b60405180910390fd5b806003015442111561046c576040517f08c379a000000000000000000000000000000000000000000000000000000000815260040161046390611db7565b60405180910390fd5b80600501548160060180549050106104b9576040517f08c379a00000000000000000000000000000000000000000000000000000000081526004016104b090611e23565b60405180910390fd5b60005b81600601805490508160ff161015610592573373ffffffffffffffffffffffffffffffffffffffff16826006018260ff16815481106104fe576104fd611e43565b5b9060005260206000200160009054906101000a900473ffffffffffffffffffffffffffffffffffffffff1673ffffffffffffffffffffffffffffffffffffffff160361057f576040517f08c379a000000000000000000000000000000000000000000000000000000000815260040161057690611ebe565b60405180910390fd5b808061058a90611f1a565b9150506104bc565b5080600601339080600181540180825580915050600190039060005260206000200160009091909190916101000a81548173ffffffffffffffffffffffffffffffffffffffff021916908373ffffffffffffffffffffffffffffffffffffffff1602179055507f84b3262b4123490963c1b5969f1bfe1695a369a6ef30df471e8bbebf6dac94628233836006018054905060405161063293929190611f52565b60405180910390a15050565b600080600084815260200190815260200160002090508060020160009054906101000a900473ffffffffffffffffffffffffffffffffffffffff1673ffffffffffffffffffffffffffffffffffffffff163373ffffffffffffffffffffffffffffffffffffffff16146106e6576040517f08c379a00000000000000000000000000000000000000000000000000000000081526004016106dd90611fd5565b60405180910390fd5b600080600090505b82600601805490508160ff1610156107d0578373ffffffffffffffffffffffffffffffffffffffff16836006018260ff16815481106107305761072f611e43565b5b9060005260206000200160009054906101000a900473ffffffffffffffffffffffffffffffffffffffff1673ffffffffffffffffffffffffffffffffffffffff16036107bd57826006018160ff168154811061078f5761078e611e43565b5b9060005260206000200160009054906101000a900473ffffffffffffffffffffffffffffffffffffffff1691505b80806107c890611f1a565b9150506106ee565b508273ffffffffffffffffffffffffffffffffffffffff168173ffffffffffffffffffffffffffffffffffffffff161461083f576040517f08c379a000000000000000000000000000000000000000000000000000000000815260040161083690612041565b60405180910390fd5b60005b82600601805490508160ff161015610918578373ffffffffffffffffffffffffffffffffffffffff16836006018260ff168154811061088457610883611e43565b5b9060005260206000200160009054906101000a900473ffffffffffffffffffffffffffffffffffffffff1673ffffffffffffffffffffffffffffffffffffffff1603610905576040517f08c379a00000000000000000000000000000000000000000000000000000000081526004016108fc906120ad565b60405180910390fd5b808061091090611f1a565b915050610842565b50600015158260080160009054906101000a900460ff16151514610971576040517f08c379a000000000000000000000000000000000000000000000000000000000815260040161096890612119565b60405180910390fd5b81600701839080600181540180825580915050600190039060005260206000200160009091909190916101000a81548173ffffffffffffffffffffffffffffffffffffffff021916908373ffffffffffffffffffffffffffffffffffffffff16021790555060008373ffffffffffffffffffffffffffffffffffffffff168360040154604051610a009061216a565b60006040518083038185875af1925050503d8060008114610a3d576040519150601f19603f3d011682016040523d82523d6000602084013e610a42565b606091505b5050905080610a955782600701805480610a5f57610a5e61217f565b5b6001900381819060005260206000200160006101000a81549073ffffffffffffffffffffffffffffffffffffffff021916905590555b80610ad5576040517f08c379a0000000000000000000000000000000000000000000000000000000008152600401610acc906121fa565b60405180910390fd5b7ff8d1583a733d83bdd3ef5464129d0a95a36d62b382d31c6d0467a61f4264381b8585604051610b0692919061221a565b60405180910390a15050505050565b60008060008381526020019081526020016000206040518061012001604052908160008201548152602001600182018054610b4f906119aa565b80601f0160208091040260200160405190810160405280929190818152602001828054610b7b906119aa565b8015610bc85780601f10610b9d57610100808354040283529160200191610bc8565b820191906000526020600020905b815481529060010190602001808311610bab57829003601f168201915b505050505081526020016002820160009054906101000a900473ffffffffffffffffffffffffffffffffffffffff1673ffffffffffffffffffffffffffffffffffffffff1673ffffffffffffffffffffffffffffffffffffffff16815260200160038201548152602001600482015481526020016005820154815260200160068201805480602002602001604051908101604052809291908181526020018280548015610cca57602002820191906000526020600020905b8160009054906101000a900473ffffffffffffffffffffffffffffffffffffffff1673ffffffffffffffffffffffffffffffffffffffff1681526020019060010190808311610c80575b5050505050815260200160078201805480602002602001604051908101604052809291908181526020018280548015610d5857602002820191906000526020600020905b8160009054906101000a900473ffffffffffffffffffffffffffffffffffffffff1673ffffffffffffffffffffffffffffffffffffffff1681526020019060010190808311610d0e575b505050505081526020016008820160009054906101000a900460ff161515151581525050905080610100015115610dc4576040517f08c379a0000000000000000000000000000000000000000000000000000000008152600401610dbb9061228f565b60405180910390fd5b62093a808160600151610dd791906122af565b421015610e19576040517f08c379a0000000000000000000000000000000000000000000000000000000008152600401610e109061232f565b60405180910390fd5b806040015173ffffffffffffffffffffffffffffffffffffffff163373ffffffffffffffffffffffffffffffffffffffff1614610e8b576040517f08c379a0000000000000000000000000000000000000000000000000000000008152600401610e829061239b565b60405180910390fd5b60008160e00151518260c0015151610ea391906123bb565b90506000826080015182610eb791906123ef565b905060018361010001901515908115158152505060003373ffffffffffffffffffffffffffffffffffffffff1682604051610ef19061216a565b60006040518083038185875af1925050503d8060008114610f2e576040519150601f19603f3d011682016040523d82523d6000602084013e610f33565b606091505b5050905080610f4f576000846101000190151590811515815250505b80610f8f576040517f08c379a0000000000000000000000000000000000000000000000000000000008152600401610f869061247d565b60405180910390fd5b7f393073ea1365f611c3d2f240c992960d2b99dc81715555d3fc40fc55ba80af9c85604051610fbe919061249d565b60405180910390a15050505050565b6000602052806000526040600020600091509050806000015490806001018054610ff6906119aa565b80601f0160208091040260200160405190810160405280929190818152602001828054611022906119aa565b801561106f5780601f106110445761010080835404028352916020019161106f565b820191906000526020600020905b81548152906001019060200180831161105257829003601f168201915b5050505050908060020160009054906101000a900473ffffffffffffffffffffffffffffffffffffffff16908060030154908060040154908060050154908060080160009054906101000a900460ff16905087565b600080600083815260200190815260200160002060405180610120016040529081600082015481526020016001820180546110fe906119aa565b80601f016020809104026020016040519081016040528092919081815260200182805461112a906119aa565b80156111775780601f1061114c57610100808354040283529160200191611177565b820191906000526020600020905b81548152906001019060200180831161115a57829003601f168201915b505050505081526020016002820160009054906101000a900473ffffffffffffffffffffffffffffffffffffffff1673ffffffffffffffffffffffffffffffffffffffff1673ffffffffffffffffffffffffffffffffffffffff1681526020016003820154815260200160048201548152602001600582015481526020016006820180548060200260200160405190810160405280929190818152602001828054801561127957602002820191906000526020600020905b8160009054906101000a900473ffffffffffffffffffffffffffffffffffffffff1673ffffffffffffffffffffffffffffffffffffffff168152602001906001019080831161122f575b505050505081526020016007820180548060200260200160405190810160405280929190818152602001828054801561130757602002820191906000526020600020905b8160009054906101000a900473ffffffffffffffffffffffffffffffffffffffff1673ffffffffffffffffffffffffffffffffffffffff16815260200190600101908083116112bd575b505050505081526020016008820160009054906101000a900460ff1615151515815250509050806040015173ffffffffffffffffffffffffffffffffffffffff163373ffffffffffffffffffffffffffffffffffffffff161461139f576040517f08c379a000000000000000000000000000000000000000000000000000000000815260040161139690611fd5565b60405180910390fd5b60005b8160c00151518160ff1610156113f0576113dd838360c001518360ff16815181106113d0576113cf611e43565b5b602002602001015161063e565b80806113e890611f1a565b9150506113a2565b505050565b82805482825590600052602060002090810192821561146e579160200282015b8281111561146d5782518260006101000a81548173ffffffffffffffffffffffffffffffffffffffff021916908373ffffffffffffffffffffffffffffffffffffffff16021790555091602001919060010190611415565b5b50905061147b919061147f565b5090565b5b80821115611498576000816000905550600101611480565b5090565b600080fd5b600080fd5b6000819050919050565b6114b9816114a6565b81146114c457600080fd5b50565b6000813590506114d6816114b0565b92915050565b600080fd5b600080fd5b600080fd5b60008083601f840112611501576115006114dc565b5b8235905067ffffffffffffffff81111561151e5761151d6114e1565b5b60208301915083600182028301111561153a576115396114e6565b5b9250929050565b60008060008060006080868803121561155d5761155c61149c565b5b600061156b888289016114c7565b955050602061157c888289016114c7565b945050604061158d888289016114c7565b935050606086013567ffffffffffffffff8111156115ae576115ad6114a1565b5b6115ba888289016114eb565b92509250509295509295909350565b6000819050919050565b6115dc816115c9565b81146115e757600080fd5b50565b6000813590506115f9816115d3565b92915050565b6000602082840312156116155761161461149c565b5b6000611623848285016115ea565b91505092915050565b600073ffffffffffffffffffffffffffffffffffffffff82169050919050565b60006116578261162c565b9050919050565b6116678161164c565b811461167257600080fd5b50565b6000813590506116848161165e565b92915050565b600080604083850312156116a1576116a061149c565b5b60006116af858286016115ea565b92505060206116c085828601611675565b9150509250929050565b6116d3816115c9565b82525050565b600081519050919050565b600082825260208201905092915050565b60005b838110156117135780820151818401526020810190506116f8565b60008484015250505050565b6000601f19601f8301169050919050565b600061173b826116d9565b61174581856116e4565b93506117558185602086016116f5565b61175e8161171f565b840191505092915050565b6117728161164c565b82525050565b611781816114a6565b82525050565b60008115159050919050565b61179c81611787565b82525050565b600060e0820190506117b7600083018a6116ca565b81810360208301526117c98189611730565b90506117d86040830188611769565b6117e56060830187611778565b6117f26080830186611778565b6117ff60a0830185611778565b61180c60c0830184611793565b98975050505050505050565b60008160601b9050919050565b600061183082611818565b9050919050565b600061184282611825565b9050919050565b61185a6118558261164c565b611837565b82525050565b6000819050919050565b61187b611876826114a6565b611860565b82525050565b600061188d8288611849565b60148201915061189d8287611849565b6014820191506118ad828661186a565b6020820191506118bd828561186a565b6020820191506118cd828461186a565b6020820191508190509695505050505050565b7f416c726561647920526567697374657265640000000000000000000000000000600082015250565b60006119166012836116e4565b9150611921826118e0565b602082019050919050565b6000602082019050818103600083015261194581611909565b9050919050565b7f4e487b7100000000000000000000000000000000000000000000000000000000600052604160045260246000fd5b7f4e487b7100000000000000000000000000000000000000000000000000000000600052602260045260246000fd5b600060028204905060018216806119c257607f821691505b6020821081036119d5576119d461197b565b5b50919050565b60008190508160005260206000209050919050565b60006020601f8301049050919050565b600082821b905092915050565b600060088302611a3d7fffffffffffffffffffffffffffffffffffffffffffffffffffffffffffffffff82611a00565b611a478683611a00565b95508019841693508086168417925050509392505050565b6000819050919050565b6000611a84611a7f611a7a846114a6565b611a5f565b6114a6565b9050919050565b6000819050919050565b611a9e83611a69565b611ab2611aaa82611a8b565b848454611a0d565b825550505050565b600090565b611ac7611aba565b611ad2818484611a95565b505050565b5b81811015611af657611aeb600082611abf565b600181019050611ad8565b5050565b601f821115611b3b57611b0c816119db565b611b15846119f0565b81016020851015611b24578190505b611b38611b30856119f0565b830182611ad7565b50505b505050565b600082821c905092915050565b6000611b5e60001984600802611b40565b1980831691505092915050565b6000611b778383611b4d565b9150826002028217905092915050565b611b90826116d9565b67ffffffffffffffff811115611ba957611ba861194c565b5b611bb382546119aa565b611bbe828285611afa565b600060209050601f831160018114611bf15760008415611bdf578287015190505b611be98582611b6b565b865550611c51565b601f198416611bff866119db565b60005b82811015611c2757848901518255600182019150602085019450602081019050611c02565b86831015611c445784890151611c40601f891682611b4d565b8355505b6001600288020188555050505b505050505050565b82818337600083830152505050565b6000611c7483856116e4565b9350611c81838584611c59565b611c8a8361171f565b840190509392505050565b600060c082019050611caa600083018a6116ca565b611cb76020830189611769565b611cc46040830188611778565b611cd16060830187611778565b611cde6080830186611778565b81810360a0830152611cf1818486611c68565b905098975050505050505050565b7f4e4f5420454e4f55474800000000000000000000000000000000000000000000600082015250565b6000611d35600a836116e4565b9150611d4082611cff565b602082019050919050565b60006020820190508181036000830152611d6481611d28565b9050919050565b7f416c72656164792048617070656e656400000000000000000000000000000000600082015250565b6000611da16010836116e4565b9150611dac82611d6b565b602082019050919050565b60006020820190508181036000830152611dd081611d94565b9050919050565b7f54686973206576656e7420686173207265616368656420636170616369747900600082015250565b6000611e0d601f836116e4565b9150611e1882611dd7565b602082019050919050565b60006020820190508181036000830152611e3c81611e00565b9050919050565b7f4e487b7100000000000000000000000000000000000000000000000000000000600052603260045260246000fd5b7f416c726561647920436f6e6669726d6564000000000000000000000000000000600082015250565b6000611ea86011836116e4565b9150611eb382611e72565b602082019050919050565b60006020820190508181036000830152611ed781611e9b565b9050919050565b7f4e487b7100000000000000000000000000000000000000000000000000000000600052601160045260246000fd5b600060ff82169050919050565b6000611f2582611f0d565b915060ff8203611f3857611f37611ede565b5b600182019050919050565b611f4c81611f0d565b82525050565b6000606082019050611f6760008301866116ca565b611f746020830185611769565b611f816040830184611f43565b949350505050565b7f4e6f7420417574686f72697a6564000000000000000000000000000000000000600082015250565b6000611fbf600e836116e4565b9150611fca82611f89565b602082019050919050565b60006020820190508181036000830152611fee81611fb2565b9050919050565b7f4e6f205253565020746f20636f6e6669726d0000000000000000000000000000600082015250565b600061202b6012836116e4565b915061203682611ff5565b602082019050919050565b6000602082019050818103600083015261205a8161201e565b9050919050565b7f416c726561647920436c61696d65640000000000000000000000000000000000600082015250565b6000612097600f836116e4565b91506120a282612061565b602082019050919050565b600060208201905081810360008301526120c68161208a565b9050919050565b7f416c726561647920706169640000000000000000000000000000000000000000600082015250565b6000612103600c836116e4565b915061210e826120cd565b602082019050919050565b60006020820190508181036000830152612132816120f6565b9050919050565b600081905092915050565b50565b6000612154600083612139565b915061215f82612144565b600082019050919050565b600061217582612147565b9150819050919050565b7f4e487b7100000000000000000000000000000000000000000000000000000000600052603160045260246000fd5b7f4661696c656420746f2073706564204574686572000000000000000000000000600082015250565b60006121e46014836116e4565b91506121ef826121ae565b602082019050919050565b60006020820190508181036000830152612213816121d7565b9050919050565b600060408201905061222f60008301856116ca565b61223c6020830184611769565b9392505050565b7f416c726561642070616964000000000000000000000000000000000000000000600082015250565b6000612279600b836116e4565b915061228482612243565b602082019050919050565b600060208201905081810360008301526122a88161226c565b9050919050565b60006122ba826114a6565b91506122c5836114a6565b92508282019050808211156122dd576122dc611ede565b5b92915050565b7f546f6f204561726c790000000000000000000000000000000000000000000000600082015250565b60006123196009836116e4565b9150612324826122e3565b602082019050919050565b600060208201905081810360008301526123488161230c565b9050919050565b7f4d757374206265206576656e74206f776e657200000000000000000000000000600082015250565b60006123856013836116e4565b91506123908261234f565b602082019050919050565b600060208201905081810360008301526123b481612378565b9050919050565b60006123c6826114a6565b91506123d1836114a6565b92508282039050818111156123e9576123e8611ede565b5b92915050565b60006123fa826114a6565b9150612405836114a6565b9250828202612413816114a6565b9150828204841483151761242a57612429611ede565b5b5092915050565b7f4661696c656420746f2073656e64204574686572000000000000000000000000600082015250565b60006124676014836116e4565b915061247282612431565b602082019050919050565b600060208201905081810360008301526124968161245a565b9050919050565b60006020820190506124b260008301846116ca565b9291505056fea2646970667358221220704a5e09e334de887574a21ad819be856191ce5d10b68a7ba0ae6c7f9eb3ab6064736f6c63430008110033",
    "linkReferences": {},
    "deployedLinkReferences": {}
}